:020000040800F2
:1000000000000220F12700083D280008A104000894
:10001000A9040008B1040008B904000800000000A9
:10002000000000000000000000000000DDA6000845
:100030003D2800080000000099A60008D9A5000886
:100040003D2800083D2800083D2800083D280008FC
:100050003D2800083D2800083D2800083D280008EC
:100060003D2800083D2800083D2800083D280008DC
:100070003D2800083D2800083D2800083D280008CC
:100080003D2800083D2800083D2800080000000029
:100090000000000000000000000000003D280008F3
:1000A0003D2800083D2800083D2800083D2800089C
:1000B0003D2800083D2800083D2800083D2800088C
:1000C0003D2800083D2800083D2800083D2800087C
:1000D0003D2800083D2800083D28000800000000D9
:1000E0003D2800083D2800083D28000800000000C9
:1000F0000000000000000000000000003D28000893
:10010000000000003D2800083D2800083D280008A8
:1001100000000000000000000000000000000000DF
:100120003D2800083D2800083D2800083D2800081B
:100130003D28000800000000000000000000000052
:100140000000000000000000000000003D28000842
:100150003D2800083D2800083D2800083D280008EB
:100160003D2800083D2800080000000000000000B5
:10017000000000000000000000000000000000007F
:10018000000000003D280008000000000000000002
:100190003D2800083D28000810B5054C237833B9E8
:1001A000044B13B10448AFF300800123237010BD4A
:1001B000200700200000000080DD000808B5034B88
:1001C0001BB103490348AFF3008008BD00000000E5
:1001D0002407002080DD0008A3F5803A704700BFA7
:1001E000174B002B08BF134B9D46FFF7F5FF00216F
:1001F0008B460F461348144A121A0CF0C5F80E4BE2
:10020000002B00D098470D4B002B00D098470020C2
:10021000002104000D000D48002802D00C48AFF367
:1002200000800BF0A3FF2000290004F07DFF0BF0FD
:1002300095FB00BF000008000000000095160008B4
:100240000000022020070020101E002000000000F7
:1002500000000000704710B55021044601F016F967
:10026000204610BD37B50546044655F8043B9B684B
:100270009847284600F03CF823688DED010ADB68BA
:10028000204698479DED010A03B030BD0346006843
:1002900018B9186808B9181D1860704708B50248E1
:1002A000FFF7F4FF08BD00BF3C07002008B5024877
:1002B000FFF7ECFF08BD00BF3C07002073B5054603
:1002C000094B0A4E45F8043B044630460191FFF7BE
:1002D000DDFF0199284600F019F83046FFF7D6FFF8
:1002E000204602B070BD00BFE8D100083C070020E6
:1002F00008B500F063F807EE900AB8EE670ADFED84
:10030000027A20EE270A08BD01088039A1F1F00326
:100310009BB20F2B73B504460D4638D922492846A7
:1003200000F048FE20492060284600F063FE1E4988
:100330000646284600F0FAFD01222168E2611B4AC8
:10034000A4F848500023C6F384369142C4E901332F
:10035000C4E90833C4E90A3384F84A60236423619A
:10036000A361E360236363610AD10193104B5A6C6C
:1003700042F480725A645B6C03F480730193019BB6
:10038000204602F08DFA68B10A4800F063FC0A4981
:10039000284600F00FFE08492060284600F02AFE9B
:1003A0000646C9E702B070BD1CD500080020014018
:1003B00000380240F8D10008D0D5000830B585B02B
:1003C00090F84A1001230022CDE90133044603923C
:1003D00012294FD8DFE801F00A2726292B2D2F31CB
:1003E000333537393B3D3F4143484A000092224D67
:1003F0006B6823F4400369466B60204602F0A8FB5B
:10040000204602F0F1FA0A21204602F04DFB78BBAB
:10041000204602F099FB80B26B6823F440036B60C6
:1004200005B030BD02230093E1E70323FBE704237B
:10043000F9E70523F7E70623F5E70723F3E70823A2
:10044000F1E70923EFE70A23EDE70B23EBE70C23A2
:10045000E9E70D23E7E70E23E5E70F23E3E7074B83
:10046000009307230293C2E71123F9E71223F7E76A
:100470000020D1E70020D3E7002301401200001044
:10048000C36810B504460BB19B689847204610BD61
:10049000024B1B6803B11847704700BF4407002098
:1004A0004FF0100300F00CB84FF0200300F008B834
:1004B0004FF0300300F004B84FF0400300F000B8F4
:1004C000EFF308804FF0040172460A4201D0EFF3C7
:1004D00009809C46254B196802680A60043142680D
:1004E0000A60043182680A600431C2680A6004311B
:1004F000F0C147460F6004314F460F600431574644
:100500000F6004315F460F60043102690A600831F0
:1005100042690A60043182690A600431C2690A6072
:100520000431034620334FF40076324200D00433C6
:1005300075464FF01006354200D148330C46103C4A
:100540002360EFF309820A600431EFF308820A6046
:10055000043172460A600431EFF314820A60604687
:10056000024B196800F04AFCFEE7000078D400084E
:10057000007B704738B50B4B03600023C0E90131A5
:1005800004460D4602730848FFF780FE45B1074B4D
:100590001A6862601C600448FFF778FE204638BD88
:1005A0006560F8E720D200084C07002048070020CB
:1005B00010B5124B036004461148FFF767FEA368AD
:1005C0002BB1104962680B68A34210D10A600E4B30
:1005D0000B481A68A24204BF00221A60FFF756FEB9
:1005E000237B13B9201F00F055FF204610BD19468C
:1005F0005B68A342FBD14A60E9E700BF20D2000854
:100600004C070020480700205407002010B504467E
:10061000FFF7CEFF2046102100F038FF204610BD26
:10062000F8B5064614480D46FFF730FE134B1C681C
:1006300094B1A76877B138460CF071FAA84209D195
:100640002A46314638460BF083FE18B90A48FFF7B0
:100650001DFE0FE06468EBE7072DF7D108482A4636
:1006600031460BF075FE0028F0D10348FFF70EFE6F
:10067000044B1C682046F8BD4C07002048070020AA
:100680000ED2000854070020002070470020704759
:10069000036801221B6900211847036800221B69B7
:1006A000114618476FF01500704703681B6918471B
:1006B00003689B69184703689B6A184700290CBFA9
:1006C0006FF0180000207047012070476FF0150090
:1006D00070476FF01500704711207047704703682E
:1006E00070B51B690122002104469847051E0DDBE9
:1006F000236802221B69002120469847236806468A
:1007000029461B690022204698473546284670BD79
:1007100070B50D460026C0E900660C49044628461F
:100720000CF005FA28442060314623681A782F2AF5
:1007300006D101332360FFF773FF6060204670BD70
:10074000002AF8D0013301312360EEE784D200089B
:1007500000687047406808B520B1FFF709FF431EE5
:100760005842584108BD10B50446FFF7F3FF10B1D9
:10077000606800B1043810BD406808B520B1FFF7CB
:10078000F7FEB0FA80F0400908BD10B50446FFF747
:10079000F3FF10B1606800B1043810BD4068003844
:1007A00018BF0120704730B591FAA1F391FAA1F179
:1007B000B3FA83F304685B000325B1FA81F105FA0B
:1007C00003F3490024EA03038A401343036030BD66
:1007D0007FB52B4B002207284FD8DFE800F004122A
:1007E0001E2A364E4E4200921A6B264842F00102F3
:1007F0001A631B6B03F001030093009B07B05DF8C5
:1008000004FB01921A6B204842F002021A631B6B30
:1008100003F002030193019BF0E702921A6B1B485D
:1008200042F004021A631B6B03F004030293029B61
:10083000E4E703921A6B164842F008021A631B6B36
:1008400003F008030393039BD8E704921A6B114843
:1008500042F010021A631B6B03F010030493049B15
:10086000CCE705921A6B0C4842F080021A631B6BAE
:1008700003F080030593059BC0E7084800F0EAF900
:10088000003802400000024000040240000802401C
:10089000000C024000100240001C024086D20008FA
:1008A00010B54FF47071044604F00F0401F030F9F4
:1008B0000120A04010BD00004B1C70B504460E4640
:1008C000018216D0C1F30310FFF782FF05463046C0
:1008D000FFF7E6FF238A074A656103F00F032060F4
:1008E00052F82330A36105F110031835C4E902550D
:1008F000636070BD34D80008B0F9100001F084B90D
:100900000A46D0E905010AB9FFF74DBF0122FBE70E
:1009100008B503F0FDF8002008BD000008B50A4B3B
:100920001B684BB101F0AAF801F096F84FF47A7207
:1009300000230AF091FE08BD044B586A4FF47A7305
:10094000B0FBF3F0F7E700BFF0070020000C004019
:10095000C36810B504460BB19B689847204610BD8C
:10096000036818470B68036070477047884238B5C2
:1009700004460D460ED0FFF783FD102200212046CD
:100980000BF002FDEB681BB15B68294620469847D7
:10099000EB68E360204638BD10B5044621B910224B
:1009A0000BF0F2FC204610BD0022034B4260826037
:1009B0000160C360F6E700BFA8D200080346012229
:1009C000D3E84F0FC3E8412FC0B20029F8D17047D8
:1009D000D0E85F3F5B18C0E8523F002AF8D198B2D8
:1009E0007047D0E85F3F5B1AC0E8523F002AF8D159
:1009F00098B27047D0E84F3FC0E8421FD8B2704766
:100A000000B589B000F07AF8052101A800F07AFA63
:100A1000114E124D0424039B019A1A60304601F0D6
:100A20003BF8019B049A1B041360304601F034F834
:100A3000013CF0D10424039B019A1A60284601F07E
:100A40002BF8019B049A1B041360284601F024F83C
:100A5000013CF0D1DEE700BFF0490200801A060039
:100A600007B5014600220190022000F00BFC00F0C7
:100A700045F8019908460CF052F801990246022007
:100A800000F000FC03B05DF804EB00F041B800009A
:100A900000B5A3B002460B4601A884210CF084F8EF
:100AA000832806D9074B1A681B79CDF883208DF867
:100AB0008730002802DD01A8FFF7D2FF23B05DF8E0
:100AC00004FB00BFB4D200080FB407B504A951F865
:100AD000040B0191FFF7DCFF03B05DF804EB04B0F9
:100AE0007047EFF31080C04300F001007047EFF350
:100AF0000580003818BF01207047000008B500F0DD
:100B000013F8024A13680133136008BD5807002028
:100B1000044A136823B1013B13600BB900F016B807
:100B2000704700BF58070020EFF3108372B6054AE4
:100B3000117831B90449DB4303F001030B70012341
:100B4000137070475D0700205C070020034B0022F4
:100B50001A70034B1B7803B162B670475D07002023
:100B60005C07002008B50B48FFF728FF28B1FFF706
:100B7000C5FFBFF34F8F20BFFDE7FFF7B8FF08B1F8
:100B8000FFF73EFFFFF7ADFF0028F9D001200AF084
:100B9000E5FE00BFAC07002070B51D4C90B034EAF4
:100BA000200428BF04460D4616460021342203A81F
:100BB0000BF0EAFBCDE900460295FFF79FFF154ACF
:100BC00013680133012B13600BD16D460FCD124C0E
:100BD0000FC40FCD0FC40FCD0FC495E80F0084E8EC
:100BE0000F006C460FCC0D4D0FC50FCC0FC50FCCB1
:100BF0000FC594E80F0085E80F00094B1B6813B17F
:100C0000A5F130009847FFF783FF002010B070BDBA
:100C10000101FF80600700206C070020B007002062
:100C20006407002030B50A4D034600F13C04002063
:100C300013F8012B80EA0260082200284FEA4000E6
:100C4000B8BF6840013AF8D1A342F1D130BD00BF2E
:100C5000B71DC1040FB407B501210648CDF804E063
:100C6000FFF7C8FE019A014610B90348FFF794FF49
:100C7000FFF778FF680700200001FF8008B50446F1
:100C800001211D4876461546FFF7B4FE20B93246CD
:100C900029462046FFF780FF1848194C174DFFF7EB
:100CA000C1FF184BD3F8BC2082420ABFD3F8B4303E
:100CB00001230133636320460023A363FFF7B2FFE0
:100CC000E063FFF71BFF0FCC0FC50FCC0FC50FCC98
:100CD0000FC594E80F0085E80F00FFF719FFBFF379
:100CE0004F8F0949094BCA6802F4E0621343CB6095
:100CF000BFF34F8F00BFFDE76807002018020020F8
:100D0000B00700209801002000ED00E00400FA0583
:100D1000F0B52C4E2C4F85B000243546214656F8B0
:100D2000042B38460134FFF7CFFE0D2CF6D1AB6C07
:100D300002936B6C01932B6C244C0093D5E90E232A
:100D4000696B2348FFF7C0FE21682248FFF7BCFE0D
:100D5000E16AA26AA36AA06A266BE76B000CCDE980
:100D600001670090C3F307231B48D2B2FFF7ACFE24
:100D7000A36A1E0603D5616B1848FFF7A5FEA36A98
:100D8000180403D5A16B1648FFF79EFEEB6C1907FC
:100D900012D51448FFF798FE2B6DDA070FD51248CD
:100DA000FFF792FEEB6C5B074CBF1048104805B094
:100DB000BDE8F040FFF788BE0E48FFF785FE0E48FD
:100DC000EEE700BF98010020B9D2000800ED00E076
:100DD000C7D2000816D3000824D3000873D3000834
:100DE00081D300088FD300089ED30008CED300081B
:100DF000DAD30008BED30008ABD3000813B504460D
:100E00001548FFF761FE302C17D0402C1AD0202C4B
:100E10001DD11248124CFFF757FE1248FFF754FE3F
:100E2000FFF776FF1048FFF74FFE104A10490023E6
:100E30000093D26B2046FFF721FF0E480E4CFFF7C0
:100E400043FEEAE70D480E4CFFF73EFEE5E70D488E
:100E50000D4CFFF739FEE0E7E6D300080FD4000899
:100E60003E01FF803CD4000847D4000898010020D0
:100E700066D400081ED400083F01FF8027D4000874
:100E80004001FF8032D400083D01FF8070B50E465E
:100E900004461546FFF710FD013609D02046002113
:100EA000FFF72EFD29462046BDE87040FFF724BD20
:100EB00070BD38B5036804460D465AB182681360A8
:100EC00020460121FFF71CFD29462046BDE8384099
:100ED000FFF712BDC2681B04F1E70022FFF7D6BF7F
:100EE00037B50D4604460192FFF7E6FC013507D001
:100EF000019A0021204603B0BDE83040FFF7D9BF7A
:100F000003B030BD0022FFF7EBBF000008B502F0D0
:100F1000ADFD01F095FC02F09BFD02F0A7FD024B38
:100F200001221A6008BD00BFF00700201FB5431C56
:100F300010D105B05DF804FB83420AD189680390A3
:100F400000F0E6FD0398002105B05DF804EB00F029
:100F50005BBE0C31B1F900305A1CEDD100230246C2
:100F6000009302481946FFF789FE00BF3001018057
:100F7000884207B502460AD0431C08D0013105D08B
:100F80000023054800931946FFF778FE01460846FE
:100F900003B05DF804FB00BF30010180B1F90030FF
:100FA0005A1C01D118467047834201D148687047E6
:100FB0000C31F3E7421C13B504460AD0FFF7EEFFED
:100FC000431C06D100230448009322461946FFF72C
:100FD00055FE02B010BD00BF30010180B1F90030F4
:100FE0005A1C01D118467047834201D18868704766
:100FF0000C31F3E7421C13B504460AD0FFF7EEFFAD
:10100000431C06D100230448009322461946FFF7EB
:1010100035FE02B010BD00BF3001018013B5074C92
:1010200001212046FFF7D4FC034628B90090014671
:1010300022880348FFF722FE02B010BDF40700200B
:101040002301048013B5094C01212046FFF7C9FC98
:101050004FF6FF73984206D100232288044800937C
:101060001946FFF70BFE02B010BD00BFF4070020C9
:10107000240104806FF01C0070476FF0150070476A
:10108000012070470020704770470000F8B5074EF8
:1010900015460C468F18BC4205D014F8011B30468B
:1010A00001F06CFAF7E72846F8BD00BF681B002086
:1010B00038B511F001048DB205D0084801F08CF864
:1010C000041E18BF0124EB0605D5044801F09AF868
:1010D00008B144F01004204638BD00BF681B002052
:1010E00010B504460BF0D6F8204610BD10B50C46DE
:1010F0002AB1044801F030FA2070012010BD1046DA
:10110000FCE700BF681B002038B51D46074B036095
:10111000074B1B68044633B9064801F0C3F805487D
:10112000294601F0A5F8204638BD00BF84D4000848
:1011300084080020681B00200020704700207047B2
:1011400008B501200AF00AFC074A08491368184448
:10115000884289BF064B10600C224FF0FF308CBFD5
:101160001A601846704700BF9C03002000FC012055
:101170000C1E00200120704700210BF0B5BB70470A
:10118000704708B5FFF7FBFF08BD08B5FFF7F8FF8C
:1011900008BD037803F00303012B09D0037803F0A3
:1011A0000302012A04D043F00203037001207047B8
:1011B00000207047037823F0030343F0010303701A
:1011C000704700003F2870B504462FDC184D55F8D5
:1011D00020305A1C13D1022811DCFFF7AFFF034661
:1011E00058B92046FFF7A8FF034630B9114E3378AF
:1011F000BFF35B8FDB0704D50F4B45F8243018464F
:1012000070BD3046FFF7C5FF0028F5D04FF41653E8
:10121000032202210848FFF777FF3046FFF7CAFF95
:10122000064A07490448FFF7A5FFE5E70023E6E77C
:101230009C020020F80700200408002098020020EB
:101240008910000838B50546FFF7BCFF0B4B00249A
:1012500043F8254030B90AF07BFB092303604FF0C7
:10126000FF3038BD03685B699847051E04DA0AF051
:101270006FFB6D420560F2E72046F2E79C0200201A
:10128000FFF7E0BF13B5CDE90021FFF79BFFDDE9D4
:10129000002140B90AF05CFB092303604FF0FF34E2
:1012A000204602B010BD0368DB689847041EF7DAD9
:1012B0000AF04EFB64420460F0E708B5131E07DA3B
:1012C0000AF046FB162303604FF0FF33184608BDB3
:1012D000FCD0FFF7D7FF40EAE073F7E713B5CDE99D
:1012E0000021FFF76FFFDDE9002140B90AF030FB74
:1012F000092303604FF0FF34204602B010BD03689D
:101300009B689847041EF7DA0AF022FB64420460E7
:10131000F0E7002A08B503DBBDE80840FFF7DEBFB1
:101320000AF016FB162303604FF0FF3008BD10B51E
:10133000FFF748FF044628B90AF00AFB09230360B7
:10134000204610BD0368DB699847041EF8DA0AF0EE
:10135000FFFA644204600024F2E737B54023CDF879
:101360000100054668468DF800300AF07DFD044610
:1013700030B12846FFF7DBFF10B12046FFF7FCFE37
:10138000204603B030BDFFF7D2BF13B5CDE9002131
:10139000FFF718FFDDE9002140B90AF0D9FA092367
:1013A00003604FF0FF34204602B010BD03681B6994
:1013B0009847041EF7DA0AF0CBFA64420460F0E7BB
:1013C000FFF7E3BF10B5FFF7FDFE30B90AF0C0FA32
:1013D000092303604FF0FF3010BD03689B699847F5
:1013E000041E04DA0AF0B4FA64420460F2E7002052
:1013F000F2E700000A4D08B52B68044698680AF029
:10140000F7FB2B68D8680AF0F3FB0120FFF7DAFF3F
:101410000220FFF7D7FF0CB1FFF7F2FAFEE700BF9B
:10142000AC06002038B50D46FFF7CCFE044630B9B7
:101430000AF08EFA092303604FF0FF3038BD0368CD
:10144000DB699847002814BF4FF400534FF4004362
:101450006B60236820469B6A984728610020EDE76F
:10146000FFF7E0BF1FB503900AF00CFF039A034695
:1014700020B9009001460348FFF700FC05B05DF875
:1014800004FB00BF1F010180FFF7ECBF0AF002BFA1
:101490000AF000BF10B504460848FEF7F7FE084AF8
:1014A0004023002152F8040BA04208BF42F8041C5C
:1014B000013BF7D10148FEF7E9FE10BDFC07002013
:1014C0009C02002010B50F48FEF7E0FE0E4B0324EF
:1014D00053F824206AB10134402CF9D10AF038FACB
:1014E000182303600748FEF7D1FE4FF0FF34204673
:1014F00010BD4FF0FF32034843F82420FEF7C6FE2C
:10150000F5E700BFFC0700209C02002010B5044650
:10151000FFF7D8FF0028A4BF014B43F8204010BDBF
:101520009C02002073B506460191FFF7EFFF051EF0
:1015300013DB0199FFF711FF044630B9084B53F84C
:101540002520964204D143F82500204602B070BD04
:101550000AF0FEF909230360F7E70024F5E700BF6E
:101560009C0200200EB42DE9F04187B00190FFF7F6
:10157000A9FF041E13DB00230199039304A8FFF7BE
:10158000C7F804A8FFF70AF91B4E054668B90AF028
:10159000DFF91323036046F824504FF0FF34204650
:1015A00007B0BDE8F04103B0704704A8FFF7E4F8C6
:1015B000074604A837B1FFF7E8F80390039B46F805
:1015C0002430ECE7FFF7CFF805460028DFD00368AA
:1015D00004A8D3F80880FFF7BBF80D9B024603A9C7
:1015E0002846C04705460028E8D00AF0B1F96D4208
:1015F000056046F82470D0E79C02002070B50E46C6
:10160000154905460BF081FA044618B9FFF7DAFDD3
:10161000204670BD114928460BF077FA20B9012009
:10162000FFF7D0FD0124F3E70D4928460BF06DFAD2
:1016300020B90220FFF7C6FD0224E9E72B78402BF2
:1016400002D1D5F80140E3E726F400412846BDE881
:101650007040FFF787BF00BFE0D40008E7D4000860
:10166000D8D4000870470000084B094998684FF02B
:101670000053C21802F16042126843F8042B8B42F7
:10168000F7D1024B4FF000529A60704700ED00E036
:101690009801002008B5FFF7E7FFFFF737FC02F0DD
:1016A0008BFAFFF7DFFF08BD2DE9F74F446894F888
:1016B0003A100646002955D1016849688847716883
:1016C000096A814205464DD0206AE168A668256214
:1016D000281A0140384886428C464FF0000E39D017
:1016E00094F83BB0D4E90A5A0027A1FB0001BBF1F2
:1016F000000F46D0CBF1200801FA08F820FA0BFCC5
:10170000ABF1200E21FA0EFE4CEA080C4CEA0E0C4E
:101710002D1821FA0BFEABF120094AEB010ACBF19F
:1017200020080EFA0BF10CFA09F941EA09012CFA2A
:1017300008F80CFA0BF02B1A41EA080100936AEB47
:1017400001030193DDE90023BB4208BFB2420CD282
:10175000C4E90A23D4E90C0110EB0C0041EB0E01A3
:10176000C4E90C0103B0BDE8F08F009B1CF1010C33
:101770004EF1000E9A1B019B63EB0703C4E90A2399
:10178000E8E732463B4609F067FF12EB050843EBFA
:101790000A09B94508BFB04584468E4602D2C4E95D
:1017A0000A89D7E710F1010C41F1000EB8EB0602EF
:1017B00069EB0703E2E700BF40420F00824206D90F
:1017C0008A420BD9884294BF00200120704788428A
:1017D00006D98A428CBF0020012070470120704743
:1017E000002070472DE9F74FD0F8048098F83A3080
:1017F0000746002B40F0818098F83930002B7CD1CF
:10180000FFF752FF7E683A6873680192002B66D03A
:10181000D6E90C01D3E90023994208BF904205D3D1
:10182000019B5B6903B0BDE8F04F1847141A63EBE6
:101830000105D6E90623AB4208BFA242D6F81090B4
:1018400006D3B2682E4B9A4219D1A14528BFA146B2
:10185000326A019B9144F2681B6909EA0202104650
:10186000019298473B685B689847019A0146D8F80F
:101870002000FFF7A3FF00283FD03B68D1E796F890
:101880003B30EBB1A3F1200CC3F1200224FA02F2A9
:1018900004FA03F005FA03F104FA0CFC194C41EACE
:1018A0000C0111430019164A4FF000044FF00003D9
:1018B00044EB010109F0D0FE814528BF8146C7E70E
:1018C0001048A2FB04AB02FB05BB1AEB00004FF073
:1018D00000010B4A4FF000034BEB0101EAE7D8F897
:1018E0001030D8F82000D8F80C201844019B1B6950
:1018F000104003B0BDE8F04F184703B0BDE8F08FCB
:1019000040420F003F420F002DE9F04F436893F82B
:10191000382085B00546002A63D193F83A30002B71
:101920005FD103681B6898472B68DB699847036899
:101930002BB92D4800931A461946FFF79FF91F212E
:10194000012202FA01F4A3425FFA81FA02D00139BE
:10195000F7D18A464668321F1C2A05D9002323483E
:1019600000931A461946E8E71C4614F1FF384FF079
:1019700000031F494FF0070743F1FF399740C1FBB0
:10198000078922464046494609F066FE6B682A6888
:1019900003934FF00008C3E90088526889468346E4
:1019A0009047039B0122186202FA06F66B68002139
:1019B0000020013EC3E90A01C3E90C01C3E9036742
:1019C0002846C3E906B99C6083F83BA01A8783F8D0
:1019D0003A80FFF769FE284605B0BDE8F04FFFF7F3
:1019E00001BF05B0BDE8F08F0E0104800501048041
:1019F00040420F0070B50446FFF780F82368DB68AB
:101A00009847636893F83A201AB1BDE87040FFF731
:101A10007FB8012283F8392063685B68A3B1204650
:101A2000FFF742FE65686E68D5E90C01D6E9002330
:101A3000994208BF904207D3F3686B602B68002B74
:101A4000EAD0B0689847E7E76368002283F8392056
:101A50002046FFF7C7FED8E738B50446FFF754FF26
:101A6000FFF74CF82046FFF71FFE6368D3E90C45EB
:101A7000FFF74EF82046294638BD704700487047AA
:101A8000F0D40008024B1B680BB10248184770479E
:101A9000A0030020F0D40008034B596A5A6A521A76
:101AA0008242FBD3704700BF000C004030B591FA72
:101AB000A1F391FAA1F1B3FA83F384685B000325E3
:101AC000B1FA81F105FA03F3490024EA03038A40DD
:101AD0001343836030BD30B591FAA1F391FAA1F1BF
:101AE000B3FA83F3C4685B000325B1FA81F105FA08
:101AF00003F3490024EA03038A401343C36030BD63
:101B0000012A02D0022A18BF0022FFF7E4BF00001A
:101B10002DE9F84300F00F023A4B1FFA80F9C0F3A9
:101B2000031053F82270C1F3831801F007060D4625
:101B3000FEF74EFEB8F10F0F0CBF032242463946A6
:101B40000446FFF7B3FF022E28D0032E58D0711E93
:101B50004B424B4197FAA7F2B2FA82F22168520047
:101B6000032000FA02F221EA020197FAA7F2B2FA80
:101B700082F252009340013E0B43012E236005D8B0
:101B800063682A074CBF3B43BB436360C5F3011244
:101B900039462046BDE8F843FFF7B2BF19F0080FF9
:101BA000C5F3832217D03B0A93FAA3F1B1FA81F16E
:101BB000406A93FAA3F389004FF00F0CB3FA83F352
:101BC0000CFA01F19B0020EA010102FA03F30B4336
:101BD00063620223BEE797FAA7F1B1FA81F1036AC3
:101BE00089000F2000FA01F123EA010197FAA7F317
:101BF000B3FA83F39B0002FA03F30B432362E8E793
:101C00003346A7E734D8000838B500F00F021F4B61
:101C1000C0F3031053F822500C46FEF7D9FD95FA95
:101C2000A5F2B2FA82F35A0001680323934095FAB1
:101C3000A5F2B2FA82F20B405200D340013B012BD5
:101C40001AD8E31E022B436809D82B43032C4360A8
:101C50001AD101222946BDE83840FFF751BF23EAD7
:101C60000503012C4360F4D0022C0BD0294600223E
:101C7000BDE83840FFF72FBF04F0FD03012BE8D08B
:101C8000052CF1D10222E5E7052CEEE734D8000857
:101C900007B50023037601910090FEF72FFFDDE9E1
:101CA000000100F083F9FEF733FF009803B05DF800
:101CB00004FB07B501908DED000AFEF71FFF9DEDB7
:101CC000000A019800F024FA03B05DF804EBFEF777
:101CD0001FBF037E10B504461BB9FFF79FF9012310
:101CE000237610BD07B58DED010A0090FEF706FFC3
:101CF0000098FFF7EEFF9DED010A009800F036F81E
:101D000003B05DF804EBFEF703BF037E10B5044695
:101D10001BB1FFF797F90023237610BD07B501909B
:101D2000FEF7ECFE019800F01BF80198FFF7EDFFBD
:101D3000FEF7EEFE019803B05DF804FB4B7D2BB17E
:101D4000082807D8044B33F8100070470C2801D836
:101D5000024BF8E700207047A0D80008B2D800086E
:101D6000B0F904004FF47071FFF7D2BEF0B52E4BFE
:101D700007681F60B5EEC00AF1EE10FA89B004469C
:101D80003ED4F7EE007AB4EE670AF1EE10FAC8BF5F
:101D9000B0EE670AD4ED037AF8EE677A67EE807AE0
:101DA00017EE900A09F0E0F8204B002208F07EFFC1
:101DB00009F0E2FB6023227D01930023CDE9053386
:101DC000039304930793531E032BA6682061B0FB73
:101DD000F6F6029622D86FF0030505EB8205214640
:101DE0002846FFF7ABFF3B6A30EA03030BD00E48EF
:101DF0002A4601A901F0FCFA50B10D48FEF72AFF6E
:101E00009FED0C0AC6E707F13403AA1043F82260DD
:101E1000637D054829461BB101F08EFB09B0F0BD7A
:101E200001F06AFBFAE700BF480800200000E03F2D
:101E300074D8000800000000C3689BB190ED047ADC
:101E400007EE903AB8EE477AF8EE677A87EE270AFF
:101E5000F7EE007AB4EE670AF1EE10FAC8BFB0EE02
:101E6000670A70479FED010A704700BF000000003D
:101E70002DE9F0412DED028B474C0268226086B0BF
:101E800000230E4600930546FFF7D6FF116A41F284
:101E900011131942B0EE408A08D1116A40F244434E
:101EA000194202BF136823F00103136001A86946B9
:101EB00001F060F92868394B0022D1B2013253F8A1
:101EC00031708742F9D110B93548FEF7C3FE03EBF4
:101ED000C1031B79002B3CD101F02CF9DDF810C0B7
:101EE00000900099012301FA03F0AB602D4BB0FB89
:101EF000F3F0B1FBF3F1BCF1000F30D14A1E771EB5
:101F00006260E7603B464FF000084FF6FE7EB3F597
:101F1000803F26D2B2F5803F23D2B8F1000F01D026
:101F20006260E36000231C482361A36001F01AFA99
:101F300050BBEE60B0EE480A2846FFF717FF226854
:101F4000136843F00103136006B0BDEC028BBDE8DB
:101F5000F08101F0FFF8DDF814C00090C1E7421EE7
:101F6000CDE7AB685B00AB60BCF1000F0ED101FBAD
:101F700003F2B7FBF3F3734502F1FF3209D8B2F570
:101F8000803F06D36260E36007489EE700FB03F2F0
:101F9000EFE74FF00108BAE748080020CCD8000866
:101FA0008BD8000840420F0074D8000830B50D46A9
:101FB00004464E4989B02846FEF7FCFF4B49206095
:101FC0002846FFF717F8C0F38433494A237523687E
:101FD000C0F3C040934260754FF000021AD10092E6
:101FE000444A516C41F001015164526C02F001020B
:101FF0000092009A404A93424CD1002305933D4BF6
:102000005A6C42F480325A645B6C03F4803305935B
:10201000059B16E0B3F1804F25D038498B422ED076
:1020200037498B4246D037498B42E3D1314B04923A
:102030001A6C42F008021A641B6C03F00803049344
:10204000049B2A492846FEF771FF0023C4E90333A5
:1020500044F6206101232046A580A36009B0BDE8B5
:102060003040FFF705BF0192224A116C41F0010197
:102070001164126C02F001020192019ABAE7029215
:102080001C4A116C41F002011164126C02F0020250
:102090000292029A1C4A934217D100230693154BD1
:1020A0005A6C42F400325A645B6C03F400330693BA
:1020B000069BC6E703920F4A116C41F004011164BC
:1020C000126C02F004020392039A104A9342B8D1B0
:1020D00000230793074B5A6C42F480225A645B6CCE
:1020E00003F480230793079BABE700BF00D60008EB
:1020F0000000014000380240004001400004004060
:1021000000080040000C004000440140004801402D
:10211000DFED047A20EE270AFDEEC07A17EE901A62
:10212000FFF7A6BE00247449704700F071BAA0F111
:10213000B400FFF7FABF00F06EBAA0F1B400FFF7E9
:10214000FABF00000A4B10B503F10802026003F168
:10215000280294330446C0F8B420C0F8B830B43034
:1021600001F092FB204600F001FB204610BD00BFAD
:1021700014D90008A0F1B400E4E7A0F1B800E1E749
:1021800010B50446FFF7DEFF2046D021FFF77EF9A9
:10219000204610BDA0F1B400F2E7A0F1B800EFE7CF
:1021A0007047704738B504461D46049B00F03AFA64
:1021B000294604F1B40001F03FFB064B03F108028D
:1021C000226003F128029433C4F8B420C4F8B83074
:1021D000204638BD14D900084368094A9B0182B0E3
:1021E000D3581A68120706D5002201921A68019284
:1021F0005A680192019A1868C0F3401002B0704703
:10220000B41B00204368034A9B01D3581868C0F3ED
:10221000C0107047B41B002003464068134A810178
:1022200010B41C688C5002EB80109A684260DA6827
:1022300082601A69C2605A6902611A6A8261002268
:10224000C284C2618284C2858285B3F91A200132B8
:1022500005D108235DF8044B436101F084BAB3F95A
:10226000183001330CBF04230C23F3E7B41B002008
:102270008160FFF7D1BF0000094B98420BD0A3F556
:102280004C43984209D003F55043984214BF4FF095
:10229000FF3002207047002070470120704700BFC8
:1022A00000100140F0B50E4685B041490446304665
:1022B0001546FEF77FFE3F4907462846FEF77AFEA1
:1022C00001463846FEF754FE022E20600AD0032D48
:1022D00008D037490220FEF76DFEB84244D1364897
:1022E000FEF7B8FC0127354B206898424FF00003F9
:1022F0003CD10193324B5A6C42F010025A645B6C31
:1023000003F010030193019BFFF7B6FF28496060BB
:102310003046FEF70BFE28462649FEF707FE701CE6
:1023200003D001213046FFF76FFC691C03D0012167
:102330002846FFF769FC00234FF41652C4E9022334
:10234000C4E904332362268365832046FFF764FFD4
:102350005FB31C4B1C4801221A6021464C2205B079
:10236000BDE8F0400AF002B80027BCE7174A9042E7
:102370000FD002F550429042C6D10393104B5A6CD5
:1023800042F020025A645B6C03F020030393039B2A
:10239000BAE702930A4B1A6C42F400321A641B6CBF
:1023A00003F400330293029BAEE705B0F0BD00BF1B
:1023B000E0D700088CD70008B0D900080010014011
:1023C0000038024084080020681B002000440040C0
:1023D000F7B5FFF751FF041E26DB144F57F8240012
:1023E00010B3134DA601AB591A68120606D5DB6867
:1023F000190603D50F4B01211B689847AB591A6882
:10240000920608D5DB68980605D50A4B57F82400D4
:102410001B6800219847AB591A68110704D55A69FF
:10242000D20744BF5B68019303B0F0BD8C08002065
:10243000B41B0020880800200148FFF7C9BF00BF77
:10244000001401400148FFF7C3BF00BF0044004033
:102450000148FFF7BDBF00BF00100140002808DBA6
:102460000123420900F01F0003FA00F0014B43F87A
:102470002200704700E100E000280DDB4309012243
:1024800000F01F0002FA00F02033044A42F8230053
:10249000BFF34F8FBFF36F8F704700BF00E100E0C5
:1024A000034B19604168034B43F82120704700BF7C
:1024B000880800208C080020D0E9000330B4204CAC
:1024C000A0421BD004F58064A0421DD0A4F5504466
:1024D000A04216D0002420461A4D9B01EB58CAB1E9
:1024E000DA68A1B942F02002DA60174B00F110025D
:1024F0009B6843F8224030BCFFF7B0BF134C252047
:10250000EAE7134C2620E7E7124C4720E4E742F0C5
:102510008002E9E7DA6849B922F02002DA60DB6874
:1025200013F0800F09D130BCFFF7A6BF22F0800264
:10253000DA60DB6813F0200FF4E730BC704700BFAF
:1025400000100140B41B002000ED00E05124000801
:10255000452400083924000838B54568044620465B
:10256000FFF73AFE0028FAD0AD01034B5B595868DB
:10257000C0F3080038BD00BFB41B002070B546682A
:1025800005460C462846FFF73DFE0028FAD0034BCF
:10259000B601C4F308049B595C6070BDB41B0020F5
:1025A000704701F1090300EB0313DA6832B100EB65
:1025B00001111846D1F89C201268104770474168F5
:1025C00030B4034671B1D0E9032000F0010402B930
:1025D00044B1451001EB60000CB149598A58996823
:1025E00030BC104730BC704770B50646044656F8FC
:1025F000443B0D461B68984730462946FFF738FE96
:102600002368C4F8B05020465B68BDE870401847A6
:102610004430FFF7A1BF10B544300C46FFF7AEFFC2
:10262000204610BD2DE9F04F87B0002501932F4BB8
:10263000036010262E4B43600446C0E90355C0E9F1
:10264000055588469146858332462946806020306C
:1026500009F09AFE04F144073246294604F130009D
:1026600009F092FE04F1900A2946A4F840504C2249
:10267000384609F089FE04F1A00B3246294650463F
:1026800009F082FE32462946584609F07DFE019B3C
:10269000C4F8B0303246294602A809F075FE02A9F6
:1026A0005046FEF763F902A8FDF7EAFE32462946D6
:1026B00002A809F069FE02A95846FEF757F902A8D8
:1026C000FDF7DEFE4A4641463846FFF7EBFDD4F8FB
:1026D000B0103846FFF7CCFD384606492246FFF7D2
:1026E000DFFE204607B0BDE8F08F00BFF0D900083C
:1026F000BF250008A32500082DE9FF410368154602
:102700000F4604461B6805F10906984704EB0616B8
:10271000FEF7F4F9FA68F36804F14408A2B10BB9C2
:10272000FEF77CFC39463046FEF720F901222946A7
:102730004046FFF7C1FEFEF7EBF9236820465B68D1
:10274000984704B0BDE8F0810BB1FEF77BFC102286
:102750000021684609F018FE69463046FEF706F982
:102760006846FDF78DFE0022E1E700001FB51A4B19
:102770000360044610220021684609F005FE00228D
:1027800069462046FFF7B8FF6846FDF779FE10223C
:102790000021684609F0F8FD012269462046FFF74E
:1027A000ABFF6846FDF76CFE04F1A000FDF768FE84
:1027B00004F19000FDF764FE04F13000FEF7C8F864
:1027C00004F12000FEF7C4F8A06908B1FDF760FE2F
:1027D000204604B010BD00BFF0D9000810B5044673
:1027E000FFF7C4FF2046B421FEF750FE204610BD7F
:1027F000DFF830D0002103E00B4B5B58435004312D
:102800000A480B4B42189A42F6D30A4A02E00023C8
:1028100042F8043B084B9A42F9D301F07BF8FDF7EC
:10282000DFFC7047000002208CDD000898020020C9
:102830002007002020070020101E0020FEE7704720
:1028400008B50B4B1A6842F400721A601A6842F419
:1028500080621A601A6842F480721A60032000F0E5
:102860000BFA0F20FEF754F8FFF7E9FF002008BD30
:10287000003C024038B50446FEF750F8631C1CBF0C
:10288000054B1B78054618BFE418FEF747F8431BB5
:10289000A342FAD338BD00BFA40300207047000054
:1028A00010B50446002800F09980036C23B94364F6
:1028B00080F83C30FFF7F2FF236CDB0600F18C80E0
:1028C000236C23F4885323F0020343F002032364B0
:1028D000434B5A6822F440325A605A6861680A438E
:1028E0005A60236821695A6822F480725A605A68D3
:1028F00042EA01225A605A68A16822F040725A6086
:102900005A680A435A609A68E16822F400629A6041
:102910009A680A439A603349A26A8A4250D09968F9
:1029200021F07061996099680A439A609A68E16A37
:1029300022F040529A609A680A439A609A68A169A4
:1029400022F002029A609A6842EA41029A60226A80
:10295000002A3DD05A68616A42F400625A605A689F
:1029600022F460425A605A68013942EA41325A60A0
:10297000DA6AE16922F47002DA62DA6A013942EA5B
:102980000152DA629A68216B22F400729A609A68A6
:1029900042EA41229A609A68616922F480629A60F0
:1029A0009A68002042EA81229A606064236C23F0D6
:1029B000030343F001032364002384F83C3010BD7B
:1029C0009A6822F070629A609A6822F04052B4E7E6
:1029D0005A6822F40062CAE70120EDE70120EEE721
:1029E000002301400100000F82B00023019390F802
:1029F0003C30012B4ED0012380F83C3003689A68AC
:102A0000D10705D59A68D20714D4002002B07047C8
:102A10009A68214942F001029A60204A1268B2FB8A
:102A2000F1F202EB42020192019A002AEAD0019AE5
:102A3000013AF8E7026C22F4E06222F0010242F46B
:102A4000807202645A68510541BF026C22F4405200
:102A500042F480520264026C12F480521CBF426C39
:102A600022F006024264002280F83C206FF022022D
:102A70001A600B4A5268D20608D1986810F040508C
:102A8000C3D19A6842F080429A60BFE7054A9342F8
:102A9000BBD1F2E70220B9E740420F00A8030020B3
:102AA000002301400020014003689A6870B5560574
:102AB00004460D460BD59B68D80508D5236C43F01A
:102AC00020032364002384F83C30012070BDFDF70F
:102AD00025FF064623681A6892070CD56FF012028C
:102AE0001A60226C42F4007222649A6812F0405F0D
:102AF00013D00020EAE7691CEDD045B9236C43F000
:102B000004032364002384F83C300320DEE7FDF750
:102B100005FF801BA842DDD9F0E7A269002AE8D1B1
:102B2000DA6A12F4700F02D09B685B05E1D4236C63
:102B300023F480732364206C10F48050D9D1236C6B
:102B400043F001032364C1E70368D86C70470000B9
:102B5000F7B50023019390F83C30012B66D0012398
:102B600080F83C300D6803688E68092DACB231D90D
:102B700004EB4402DF681E3A4FF0070C0CFA02FC2B
:102B800027EA0C07DF60DF6806FA02F23A43DA60F0
:102B90004968062901EB81022CD8596B053A1F269A
:102BA000964021EA06015963596B04FA02F20A437E
:102BB0005A632C4A934207D1122D39D1D2F80433EB
:102BC00043F48003C2F80433002380F83C301846F5
:102BD00003B0F0BD1F6905EB45024FF0070C0CFA7E
:102BE00002FC27EA0C071F611F6906FA02F23A434A
:102BF0001A61CDE70C294FF01F010BD81E6B233A49
:102C0000914026EA01011963196B04FA02F20A43A2
:102C10001A63CEE7DE6A413A914026EA0101D962A1
:102C2000D96A04FA02F20A43DA62C2E70220CFE765
:102C30000D4B9D4201D0112DC6D10C494A689D42D1
:102C400042F400024A60BFD1094B0A4A1B68B3FB39
:102C5000F2F20A2353430193019B002BB4D0019B52
:102C6000013BF8E700200140120000100023014062
:102C7000A803002040420F000749CA6822F4E0621E
:102C80000302120403F4E063120C134343F0BF6326
:102C900043F40033CB60704700ED00E02DE9F341D1
:102CA000044618B9012002B0BDE8F0810368DD07D1
:102CB00010D4236898075BD423681A0700F19D801D
:102CC00023685B0700F1BB80A269002A40F01C81E9
:102CD0000020E8E7A54B9A6802F00C02042A07D00E
:102CE0009A6802F00C02082A0AD15A68510207D5E4
:102CF0009E4B1B689A03DCD56368002BD9D1D1E7C2
:102D00006268B2F5803F11D11A6842F480321A60CD
:102D1000FDF704FE954E054633689B03C9D4FDF7C5
:102D2000FDFD401B6428F7D90320BCE78F4DB2F5A9
:102D3000A02F2B6807D143F480232B602B6843F42A
:102D400080332B60E4E723F480332B602B6823F47B
:102D500080232B60002ADBD1FDF7E0FD06462B68BF
:102D60009F03A6D5FDF7DAFD801B6428F7D9DBE7C2
:102D70007E4B9A6812F00C0F07D09A6802F00C0292
:102D8000082A11D15B685E020ED4784B1A68950749
:102D900002D5E268012A85D11A68216922F0F80279
:102DA00042EAC1021A6087E7E268714BB2B10122C0
:102DB0001A60FDF7B3FD6D4D06462B68980707D5E1
:102DC0002B68226923F0F80343EAC2032B6073E700
:102DD000FDF7A4FD801B0228EFD9A5E71A60FDF7D7
:102DE0009DFD624E0546336899077FF565AFFDF797
:102DF00095FD401B0228F6D996E762695D4B7AB1D2
:102E000001221A60FDF78AFD584E0546736F9F0731
:102E10003FF556AFFDF782FD401B0228F6D983E748
:102E20001A60FDF77BFD514E0546736F98077FF5DD
:102E300047AFFDF773FD401B0228F6D974E74B4BF3
:102E40001A6C12F0805228D101921A6C42F0805212
:102E50001A641B6C03F080530193019B0127464DBC
:102E60002B68D9051BD5A368404D012B27D12B6FAB
:102E700043F001032B67FDF751FD3C4E054641F23F
:102E80008838336F9B0739D5002F3FF41DAF374A81
:102E9000136C23F08053136416E70027DFE72B68D9
:102EA00043F480732B60FDF739FD06462B68DA0585
:102EB000D9D4FDF733FD801B0228F7D934E7052B61
:102EC00004D12B6F43F004032B67D0E72A6F22F065
:102ED00001022A672A6F22F004022A67002BCAD156
:102EE000FDF71CFD41F2883806462B6F9807CBD5BD
:102EF000FDF714FD801B4045F7D915E7FDF70EFDE2
:102F0000401B4045BDD90FE7184DAB6803F00C03DB
:102F1000082B3FF4C7AE194E0023022A336035D187
:102F2000FDF7FCFC07462B68990129D4D4E9073248
:102F30001343626A43EA8213E26A43EA0263A26AC3
:102F40005208013A43EA02436B6001233360FDF704
:102F5000E5FC064D04462B689A013FF5B9AEFDF736
:102F6000DDFC001B0228F6D9DEE600BF0038024077
:102F700000004742800E4742007000406000474218
:102F8000FDF7CCFCC01B0228CDD9CDE6FDF7C6FC71
:102F900004462B689B017FF59BAEFDF7BFFC001B31
:102FA0000228F6D9C0E600BF134908B58B6803F0C4
:102FB0000C03042B1CD0082B1CD14A684B684968B1
:102FC00013F4800314BF0D480D48C1F3881118BFD6
:102FD000002302F03F02A1FB000108F03DFB064B7D
:102FE0005B68C3F3014301335B00B0FBF3F008BD42
:102FF0000248FCE70248FAE70038024000127A0073
:103000000024F4002DE9F0410D46044610B90120DA
:10301000BDE8F081434B1A6802F00F028A4227D3C1
:10302000226897072CD4D00740D43E4B1A6802F090
:103030000F02AA4265D8226851076BD4130707D53F
:10304000394A2169936823F4604343EAC1039360DA
:10305000FFF7AAFF344B354A9B68C3F30313D35CD5
:10306000D840334B18600F20FDF752FC0020CFE70B
:10307000CAB21A701B6803F00F038B42C7D1CFE7A7
:10308000294B12F0040F1EBF996841F4E05199607A
:10309000160742BF996841F4604199602249A068CF
:1030A0008B6823F0F00303438B60BCE762681E4B20
:1030B000012A1CD11B6813F4003FA8D01A4EB36834
:1030C00023F003031343B360FDF728FC41F2883873
:1030D0000746B368626803F00C03B3EB820FA4D019
:1030E000FDF71CFCC01B4045F3D9032090E7911E5F
:1030F00001291B6802D813F0007FDEE713F0020FEE
:10310000DBE7EAB21A701B6803F00F03AB427FF4EF
:103110007EAF90E70449E0688B6823F4E0530343F3
:103120008B608BE7003C02400038024000DB000867
:10313000A8030020044B054A9B68C3F38223D35C99
:10314000034A1068D84070470038024010DB00087E
:10315000A8030020044B054A9B68C3F34233D35CA9
:10316000034A1068D84070470038024010DB00085E
:10317000A80300200F2303600B4B9A6802F00302A0
:1031800042609A6802F0F00282609A6802F4E052AB
:10319000C2609B68DB0803F4E0530361034B1B68C8
:1031A00003F00F030B60704700380240003C024000
:1031B000036A23F001030362036A70B544688269FD
:1031C0000D6822F073022A438D6823F002032B431B
:1031D0000A4DA8420BD1CD6823F008032B43D1E957
:1031E000055624F44074354323F004032C43446013
:1031F00082614A684263036270BD00BF0000014003
:10320000036A23F480730362036A70B54468C26979
:103210000D6822F073022A438D6823F4007343EA99
:1032200005230B4DA8420DD1CD6823F4006343EA7A
:103230000523D1E9055624F44054354323F4806333
:1032400044EA05144460C2614A68C263036270BD07
:1032500000000140036A23F480530362036A30B51F
:103260004468C2690D6822F4E64242EA05228D688C
:1032700023F4005343EA0533064DA84202BF4D69CB
:1032800024F4804444EA85144460C2614A680264BC
:10329000036230BD0000014070477047224A036856
:1032A00090420ED0B0F1804F0BD0A2F57C429042FC
:1032B00007D002F58062904203D002F5806290420E
:1032C00015D14A6823F070031343174A904219D06E
:1032D000B0F1804F16D0A2F57C42904212D002F598
:1032E000806290420ED002F5806290420AD00F4A6E
:1032F000904207D002F58062904203D002F58062CE
:10330000904203D1CA6823F44073134303608B686F
:10331000C3620B688362044B984204BF0B6903636A
:1033200001234361704700BF00000140004001409D
:1033300010B50446A0B190F8393003F0FF021BB974
:1033400080F83820FFF7A8FF0223206884F839307E
:10335000211DFFF7A3FF012384F83930002010BDA1
:103360000120FCE710B50446A0B190F8393003F015
:10337000FF021BB980F83820FFF78FFF0223206877
:1033800084F83930211DFFF789FF012384F8393093
:10339000002010BD0120FCE7036A23F01003036244
:1033A000036A70B5446882690D6822F4E64242EA15
:1033B00005228D6823F0200343EA05130B4DA84234
:1033C0000DD1CD6823F0800343EA0513D1E90556FA
:1033D00024F44064354323F0400344EA8504446008
:1033E00082614A688263036270BD00BF00000140D1
:1033F00038B590F83830012B04464FF0020010D059
:103400000123082A84F8383084F839003FD009D8DD
:10341000DAB1042A2AD00123002084F8393084F854
:10342000380038BD0C2AF6D12068FFF713FF236857
:103430000969DA6942F40062DA61DA6922F48062C9
:10344000DA61DA6942EA012230E02068FFF7B0FE73
:10345000236809699A6942F008029A619A6922F020
:1034600004029A619A690A439A61D4E72068FFF7D7
:1034700093FF236809699A6942F400629A619A6924
:1034800022F480629A619A6942EA0122ECE720689C
:10349000FFF7B6FE23680969DA6942F00802DA61CB
:1034A000DA6922F00402DA61DA690A43DA61B2E722
:1034B000036A10B501248C4023EA04030362036A03
:1034C00002FA01F10B43036210BD000010B504467F
:1034D00001220068FFF7ECFF2368064A934202BF0F
:1034E0005A6C42F400425A641A6842F001021A60AF
:1034F000002010BD00000140FFF7E8BF036A10B5CF
:1035000004248C4023EA04030362036A02FA01F1F3
:103510000B43036210BD10B5044604220068FFF798
:10352000EDFF23685A6C42F400425A641A6842F074
:1035300001021A60002010BDFFF7EDBF2DE9F8432E
:103540000368C1681A69044622F440520A431A61AA
:103550002569A268D968C0692A43656921F41641C2
:103560002A4321F00C0102430A43DA605A69A16937
:1035700022F440720A43B0F5004F5A61774A79D17C
:10358000934203D002F58062934243D1FFF7E2FDFC
:10359000636819254FF0640868435B00B0FBF3F3E0
:1035A000B3FBF8F31F01FFF7D5FD636868435B00C9
:1035B000B0FBF3F6FFF7CEFD636868435B00B0FB3A
:1035C000F3F3B3FBF8F308FB1363DB003233B3FB15
:1035D000F8F35B0003F4F876FFF7BCFD626868431C
:1035E0005200B0FBF2F9FFF7B5FD6368226868434B
:1035F0005B00B0FBF3F3B3FBF8F308FB1393DB00C2
:103600003233B3FBF8F303F007033B4433449360D6
:10361000BDE8F883FFF78EFD636819254FF0640855
:1036200068435B00B0FBF3F3B3FBF8F31F01FFF754
:1036300081FD636868435B00B0FBF3F6FFF77AFD3A
:10364000636868435B00B0FBF3F3B3FBF8F308FB7C
:103650001363DB003233B3FBF8F35B0003F4F8765B
:10366000FFF768FD626868435200B0FBF2F9FFF7AC
:1036700061FDBAE7934202D0394A93423FD1FFF746
:1036800069FD636819254FF0640868439B00B0FB2F
:10369000F3F3B3FBF8F31E01FFF75CFD63686843C7
:1036A0009B00B0FBF3F7FFF755FD636868439B0091
:1036B000B0FBF3F3B3FBF8F308FB13731B013233D6
:1036C000B3FBF8F303F0F007FFF744FD62686843CB
:1036D0009200B0FBF2F9FFF73DFD63682268684392
:1036E0009B00B0FBF3F3B3FBF8F308FB13931B0150
:1036F0003233B3FBF8F303F00F033B4386E7FFF7E6
:1037000019FD636819254FF0640868439B00B0FBFE
:10371000F3F3B3FBF8F31E01FFF70CFD6368684396
:103720009B00B0FBF3F7FFF705FD636868439B0060
:10373000B0FBF3F3B3FBF8F308FB13731B01323355
:10374000B3FBF8F303F0F007FFF7F4FC626868439B
:103750009200B0FBF2F9FFF7EDFCBEE7001001406C
:1037600000140140704710B5044640B390F839305A
:1037700003F0FF021BB980F83820FFF7F3FF22683F
:10378000242384F83930D36823F40053D3602046CF
:10379000FFF7D4FE23681A6922F490421A615A692D
:1037A00022F02A025A61DA6842F40052DA600020FC
:1037B0002023E06384F8393084F83A3010BD0120CA
:1037C000FCE77047704700207047F8B50368DB6D71
:1037D0000D4604468F1898472E46BE42236806D0F1
:1037E0005B6D16F8011B204698470130F5D1236820
:1037F00020461B6E9847701BF8BDF8B50368DB6D5B
:103800000D4604468F1898472E46BE42236807D0BF
:103810009B6D20469847431C02D006F8010BF4E745
:10382000236820461B6E9847701BF8BD0020704728
:1038300000207047704700000F4B13B5002204466C
:1038400040F8043BFCF796FE0C4B23606C3363603E
:10385000002363610A492046FDF764FE0346606168
:1038600028B90090024601460648FDF707FAFDF721
:1038700083FC204602B010BD30D2000878DA000880
:1038800000DA0008190101800A4B03F108027433C1
:1038900010B5044602604360406908F0DFF8064B4B
:1038A000236020465C3340F8043FFCF781FE20464D
:1038B00010BD00BF70DA00080CDA000838B50368E4
:1038C0000446DB6D0D46984701226069002108F02F
:1038D00015FB6169284608F007FB236805461B6E47
:1038E00020469847284638BD7FB50F220223CDE9F0
:1038F0000123032100234FF4805201A8CDE90332B4
:103900000593FFF77FFBB0FA80F0400907B05DF840
:1039100004FB00000D4AD2F8883043F47003C2F86B
:1039200088300B4B1A68002142F001021A6099603E
:103930001A6822F0847222F480321A60054A5A60B2
:103940001A6822F480221A60D960704700ED00E006
:10395000003802401030002410B58EB01C4B0024FB
:1039600000941A6C42F080521A641B6C194A03F0DE
:1039700080530093009B0194136823F4404343F465
:1039800000431360136803F440430193A042019B7A
:103990004FF0010302930CBF4FF480334FF4A02388
:1039A000022203934FF48003CDE908230423C822A5
:1039B000CDE90A320C9308230DEB03000D93FFF7BA
:1039C0006DF918B9FFF790FF0EB010BD2046FBE768
:1039D000003802400070004010B58EB000241A4B31
:1039E00000941A6C42F080521A641B6C174A03F060
:1039F00080530093009B0194136823F4404343F4E5
:103A0000004313601368039403F440430193019B44
:103A10000323029301230593102306930223C82254
:103A2000CDE908340823CDE90A320DEB0300042266
:103A3000CDE90C23FFF732F918B9FFF755FF0EB0A7
:103A400010BD2046FBE700BF003802400070004078
:103A500008B50120FFF780FF28B9FFF7BDFF10B9B7
:103A60000148FDF7F7F808BDECDA0008174A1849D5
:103A7000936803F00C03042B10B50DD0082B0DD068
:103A8000144B0B60114B144A9B68C3F30313D25CB5
:103A90000B68D3400B6010BD104BF2E754685068C0
:103AA00052686302C2F388124CBF0C4B094B00F002
:103AB0003F00B3FBF0F35343044A5268C2F30142A0
:103AC00001325200B3FBF2F3DBE700BF00380240E3
:103AD000A80300200024F40000DB000800127A0094
:103AE000074B084A13601A69910707D5DA689207ED
:103AF00004D56FF002021A61FDF7C4BF704700BF22
:103B0000000C0040781C00200048704718DB0008BB
:103B100030B589B001A903A8FFF72CFBFFF70AFB1A
:103B2000002302931E4B01901A6C1E4C42F00802B7
:103B30001A641A6C02F008020292029A1A6A42F09F
:103B400008021A621A6A22F008021A62069AA3F59B
:103B50000B3323604FF0FF33E360134BF2B9B0FB3C
:103B6000F3F00138002560600E482561A5606561AD
:103B7000FFF7DEFB0D4B0E4A9B68C3F808210D4B87
:103B80004FF480225A6007482946FFF79FFC2268BD
:103B9000D36823F00203D36009B030BD4000DEE7F4
:103BA00000380240781C002040420F0000ED00E089
:103BB000E13A000800E100E004480268D36823F01D
:103BC0000203D3600021FFF781BC00BF781C0020F6
:103BD000014B586A704700BF000C0040054B1B6842
:103BE0006FF0020258631A61DA6842F00202DA608A
:103BF000704700BF781C0020064B1B686FF0020264
:103C00001A615A6942F002025A61DA6842F002020D
:103C1000DA607047781C0020034B1A68D36823F0E1
:103C20000203D360704700BF781C0020024B1B6862
:103C30006FF002021A617047781C002010B584B042
:103C400001902949019A13465B0013449B000B44E1
:103C500008331B78002B2DD15020FDF703FC0346C1
:103C60001C462149019A13465B0013449B000B44F8
:103C7000B3F9003019462046FCF720FB1A49019A97
:103C800013465B0013449B000B4404331C6016492D
:103C9000019A13465B0013449B000B440833032234
:103CA0001A70019A13465B0013449B000E4A13449A
:103CB000039315E00C49019A13465B0013449B00E3
:103CC0000B4408331B78032B08D1019A13465B0081
:103CD00013449B00044A1344039301E0002303931D
:103CE000039B184604B010BD2004002084B003904C
:103CF0000B4601928DF80B3000BF04B0704700B541
:103D000089B00390029113468DF80730039B059309
:103D1000059B002B0ED0059B5B681846FCF7A2FAAA
:103D200010EE103A184607F01FF902460B46CDE98F
:103D3000062305E04FF000024FF00003CDE9062313
:103D40000299DDE90623C1E9002300BF09B05DF84F
:103D500004FB82B0019000BF02B0704782B00190B6
:103D600000BF02B0704700B585B00190019B03937E
:103D7000039B002B0ED0039B5B68002B04D01A68BA
:103D80000432126818469047039B00225A60039B36
:103D900000221A7200BF05B05DF804FB00B583B0C5
:103DA00001900B46ADF80230019BBDF9022011468F
:103DB0001846FDF76DFF019B184603B05DF804FB44
:103DC00000B583B00190019B1846FDF7C9FF019B28
:103DD0001846FDF7A3FF019B184603B05DF804FBEE
:103DE00010B588B005908DED020B8DED001B464996
:103DF000059A13465B0013449B000B4408331B7861
:103E0000002B67D11C20FDF72DFB03461C463E49C5
:103E1000059A13465B0013449B000B44B3F9003032
:103E200019462046FFF7BAFF3749059A13465B004B
:103E300013449B000B4404331C603349059A13461A
:103E40005B0013449B000B4404331B681C46DDE9F4
:103E500002234FF000002D4907F008FA02460B46F6
:103E60001046194607F0A8FB034600EE103A20461C
:103E7000FDF71FFF2449059A13465B0013449B007E
:103E80000B4404331B681C464FF00002204BDDE955
:103E9000000107F0EBF902460B461046194607F001
:103EA0008BFB034600EE103A2046FDF71BFF164938
:103EB000059A13465B0013449B000B44083304220D
:103EC0001A70059A13465B0013449B000E4A134474
:103ED000079315E00C49059A13465B0013449B00B9
:103EE0000B4408331B78042B08D1059A13465B005A
:103EF00013449B00044A1344079301E000230793F3
:103F0000079B184608B010BD200400200000F03FB9
:103F10000000594082B0019000BF02B0704700001D
:103F200010B586B003908DED000B039B0593059BA8
:103F3000002B19D0059B1B7A042B15D1059B5B68C0
:103F40001C464FF000020A4BDDE9000107F08EF934
:103F500002460B461046194607F02EFB034600EEBC
:103F6000103A2046FDF7BEFE00BF06B010BD00BFF0
:103F70000000594010B584B00190019B0393039B4E
:103F8000002B14D0039B1B7A042B10D1039B5C687D
:103F9000002C06D02046FFF713FF1C212046FDF71A
:103FA00075FA039B00221A72039B00225A6000BF1D
:103FB00004B010BD82B0019000BF02B0704782B063
:103FC00001900091009B002B05D0019B9B68019AFA
:103FD00012681A6005E0019B1A68019BDB681204F5
:103FE0001A6000BF02B0704700B583B001900B4665
:103FF000ADF80230019B1A460023136053609360B2
:10400000D360136153619361019BBDF90220114696
:104010001846FCF762FF019B184603B05DF804FBED
:1040200000B583B001900B46ADF80230019B1A46F3
:104030000023136053609360D360136153619361F5
:10404000019BBDF9022011461846FCF75BFF019B5E
:10405000184603B05DF804FB00B583B001900091F1
:10406000019B00991846FFF7AAFF00BF03B05DF857
:1040700004FB000010B584B001900B468DF80330AE
:10408000002303935849019A13465B0013449B0095
:104090000B4408331B78002B5BD19DF80330002BB9
:1040A00025D11C20FDF7DEF903461C464E49019A36
:1040B00013465B0013449B000B44B3F900301946D0
:1040C0002046FFF791FF4849019A13465B001344CD
:1040D0009B000B4404331C604349019A13465B0068
:1040E00013449B000B44083301221A7028E09DF80A
:1040F0000330012B24D11C20FDF7B4F903461C46E4
:104100003949019A13465B0013449B000B44B3F9F1
:10411000003019462046FFF783FF3349019A1346C2
:104120005B0013449B000B4404331C602E49019A2E
:1041300013465B0013449B000B44083302221A70A1
:10414000019A13465B0013449B00274A13440393D0
:1041500045E02549019A13465B0013449B000B443C
:1041600008331B78012B0CD19DF80330002B08D1AC
:10417000019A13465B0013449B001B4A13440393AC
:104180002DE01949019A13465B0013449B000B4430
:1041900008331B78022B0CD19DF80330012B08D17A
:1041A000019A13465B0013449B000F4A1344039388
:1041B00015E00D49019A13465B0013449B000B4424
:1041C00008331B780A2B08D1019A13465B0013446D
:1041D0009B00054A1344039301E000230393039BD0
:1041E000184604B010BD00BF2004002000B585B003
:1041F00001900B468DF80330019B0393019B002B2C
:1042000007D0039B5B689DF8032011461846FFF713
:1042100023FF00BF05B05DF804FB00B585B0019039
:10422000019B0393039B1B7A022B0BD1039B5B68BF
:10423000002B03D01C211846FDF728F9039B002210
:104240001A720EE0039B1B7A012B0AD1039B5B6859
:10425000002B03D01C211846FDF718F9039B002200
:104260001A7200BF05B05DF804FB84B001900091A4
:1042700000238DF80F309DF90F30184604B07047B9
:1042800000B585B00190009100238DF80B30019BA3
:10429000002B02D14FF0FF3358E0009B002B02D1DE
:1042A0004FF0FF3352E02B4BD3E900014FF00002F7
:1042B0004FF0404307F018F90346002B06D0009B4F
:1042C000D3E900232349C1E9002305E0214BD3E9C9
:1042D00000230099C1E900231E4BD3E90023019B71
:1042E0005B681B681C4A1360019B5B685B681B4A28
:1042F0001360019B5B689B68194A1360019B5B68B4
:10430000DB68184A1360184B00221A6001F0D0FBDA
:10431000002303930023039307E0144A039B1449EB
:1043200042F82310039B01330393039B002BF4D02B
:1043300001F04CF803468DF80B309DF90B30002B43
:1043400002D10C4B01221A709DF90B30184605B0B2
:104350005DF804FBF00300203C0900204009002028
:1043600044090020480900204C090020980800203A
:104370000D5B00083B09002000B587B001900023C9
:104380008DF817300023049300238DF80F302E4B47
:104390001B78DBB2002B0CBF01230023DBB28DF8AE
:1043A0000E302A4B02221A70019B002B0BD1264B98
:1043B0001B78DBB2002B06D1254B1B78DBB2002B20
:1043C00001D1012300E000238DF80F3017E00A200F
:1043D000FEF750FA049B03F51C5310330493019B22
:1043E000B3F1FF3F05D0049A019B9A4201D9012302
:1043F00000E000238DF80F30002001F01BF8124B75
:104400001B78DBB2002B08D1114B1B78DBB2002BE1
:1044100003D19DF80F30002BD9D00C4B03221A701A
:104420009DF80F30002B02D09C238DF817309DF89B
:104430000E30002B01D001F063FC9DF917301846B7
:1044400007B05DF804FB00BF390900203B090020DC
:104450003A09002000B587B003468DED000BADF89A
:104460000E3000238DF8173001238DF816304FF0F1
:1044700000024FF00003DDE9000107F03FF80346BA
:10448000002B02D04FF0FF334CE0BDF80E30FF2B75
:1044900002D94FF0FF3345E0244B1B78DBB2032BEE
:1044A00004D0224B1B78DBB2012B02D11F4B04221C
:1044B0001A70BDF80E30002B1BD1BDF80E301C4A0F
:1044C00052F82330002B14D001F06AFF03468DF818
:1044D00015309DF81530022B0BD1BDF80E30144A63
:1044E00052F82330BDF80E201046984703468DF849
:1044F0001630BDF80E3018469DED000B00F0C8FEDA
:104500009DF81630002B0BD0BDF80E30ADF81230F0
:10451000BDF81230184601F01DFF03468DF8173024
:104520009DF91730184607B05DF804FB3B090020E1
:104530009808002000B583B000238DF807300020D4
:1045400000F078FF03468DF807309DF907301846D4
:1045500003B05DF804FB000000B583B000238DF8C4
:1045600007300B4B06221A7001F000F803468DF855
:104570000730084B00221A6001F04CFB044B00226C
:104580001A709DF90730184603B05DF804FB00BFB0
:104590003B09002098080020024B1B78DBB218462C
:1045A000704700BF3A090020024B1B78DBB2184667
:1045B000704700BF5009002030B583B0A74BD3E946
:1045C0001601A74BD3E9002306F08EFF0346002B0C
:1045D00005D1A34BD3E90023A049C1E916239F4B82
:1045E0005B6D1846FFF7B5FB9C4B5B6D6946072278
:1045F0001846FFF784FB9A4BD3E90801DDE9002355
:1046000006F00AFD02460B469649C1E90023934B8A
:10461000D3E91001924BD3E9022306F065FF03466C
:10462000002B05D18E4BD3E902238C49C1E910231D
:104630008A4BDB6B1846FFF78CFB884BDB6B072242
:1046400089491846FFF75BFB844BD3E90A01844B89
:10465000D3E9042306F048FF0346002B05D1804B25
:10466000D3E904237D49C1E90A237C4B5B6A1846E0
:10467000FFF76FFB794B5B6A07227C491846FFF70F
:104680003EFB764BD3E90401754BD3E9062306F0D4
:104690002BFF0346002B05D1714BD3E906236F494D
:1046A000C1E904236D4BDB681846FFF752FB6B4BE7
:1046B000DB6807226E491846FFF721FB684BD3E9F8
:1046C0000A236849C1E90223644BD3F88C30654A58
:1046D00092ED027BB0EE470AF0EE670A1846FFF74C
:1046E0001FFC5E4BDB6F5F4A92ED027BB0EE470A28
:1046F000F0EE670A1846FFF713FC584BDB6E594A79
:1047000092ED027BB0EE470AF0EE670A1846FFF71B
:1047100007FC524BD3F8DC40514BD3E90C01012389
:104720001D464FF000024FF0000306F0DDFE034689
:10473000002B01D000231D46EBB219462046FFF79F
:1047400055FD464BD3F8BC40454BD3E90C01012342
:104750001D464FF000024FF0000306F0C5FE034671
:10476000002B01D000231D46EBB219462046FFF76F
:104770003DFD3A4BD3F89C40394BD3E90C01012362
:104780001D464FF000024FF0000306F0ADFE034659
:10479000002B01D000231D46EBB219462046FFF73F
:1047A00025FD2E4BD3F8EC402D4BD3E90E01012310
:1047B0001D464FF000024FF0000306F095FE034641
:1047C000002B01D000231D46EBB219462046FFF70F
:1047D0000DFD224BD3F8CC40214BD3E90E01012330
:1047E0001D464FF000024FF0000306F07DFE034629
:1047F000002B01D000231D46EBB219462046FFF7DF
:10480000F5FC164BD3F8AC40154BD3E90E01012350
:104810001D464FF000024FF0000306F065FE034610
:10482000002B01D000231D46EBB219462046FFF7AE
:10483000DDFC104B9A6A01329A629B6A184606F0B8
:1048400071FB0C4BD3E90C230A4C06F0E5FB024646
:104850000B46C4E9082300BF03B030BDC01C0020D4
:10486000B0030020C81D0020E81D0020E01D00202E
:10487000D81D0020A008002000B587B09E494FF049
:1048800000029E4BC1E90E239B4999A3D3E9002363
:10489000C1E90C23984B9A4A9A60974B994ADA607F
:1048A000954B994A1A61944B984A5A61924B984A8F
:1048B0005A60974B974A1A60964B974A1A60954BE5
:1048C000954A5A60934B944A9A60924B924ADA60A6
:1048D000904B914A1A618F4B8F4A5A618D4B8E4A89
:1048E0009A618C4B8C4ADA618A4B8B4A1A62894BEB
:1048F000894A5A62874B884A9A62864B864ADA62AC
:10490000844B854A1A63834B834A5A637A4A7A4BAB
:104910005B6818329A60784A774B5B6808325A6055
:10492000754A754B5B682032DA607C4B012283F854
:1049300048207A4B0022DA6478494FF000026F4B2E
:10494000C1E91623754B002283F84820744BD3E944
:1049500000237249C1E91623724B05936F4B002265
:1049600083F850206D4B0122DA64132304930498DA
:10497000FFF764F90246059BDA6000238DF80F30DB
:10498000664B5B6D9DF80F1000221846FFF7AEF9DD
:10499000624B012283F85020604B012283F83020C3
:1049A0005E4B00225A635D494FF00002534BC1E950
:1049B00010235A4B002283F83020594BD3E90223AD
:1049C0005649C1E91023584B0593544B002283F8F4
:1049D0003820524B01225A631B2304930498FFF79B
:1049E0002DF90246059BDA6000238DF80F304B4B02
:1049F000DB6B9DF80F1000221846FFF777F9474B45
:104A0000012283F83820454B01221A76434B0022BD
:104A1000DA6142494FF00002384BC1E90A233F4BAB
:104A200000221A763E4BD3E904233C49C1E90A230C
:104A30003E4B0593394B002283F82020374B01224F
:104A4000DA61242304930498FFF7F8F80246059BE3
:104A5000DA6000238DF80F30304B5B6A9DF80F1041
:104A600000221846FFF742F92C4B012283F8202040
:104A70002A4B01221A70294B00225A6027494FF015
:104A800000021E4BC1E90423244B00221A70244B60
:104A9000D3E906232149C1E90423204B05931F4B89
:104AA00000221A721D4B01225A600B2304930498B2
:104AB000FFF7C4F80246059BDA6000238DF80F303B
:104AC000164BDB689DF80F1000221846FFF70EF911
:104AD000124B01221A72114B012283F880200F4BD6
:104AE0000022C3F884200D4B002283F880201FE0B1
:104AF0009A9999999999C93FA00800200000F0BFA0
:104B00005F5FD2EEBBE56130A5AF1A5E8EA4D71B06
:104B1000E8080020FC08002024DB0008C01C00205E
:104B2000B0030020081D0020F01C0020D81C00202D
:104B3000A74B0293A74B002283F88820A54B0122A4
:104B4000C3F88420162304939FED9D1B9FED9E0BBD
:104B50000498FFF745F90246029BDA609D4BD3F8B3
:104B60008C301846FFF7D6F99A4B012283F888203B
:104B7000984B012283F87020964B00225A67954B80
:104B8000002283F87020944B0293924B002283F80A
:104B90007820904B01225A67272304939FED881BAE
:104BA0009FED890B0498FFF71BF90246029BDA6020
:104BB000884BDB6F1846FFF7ADF9864B012283F86F
:104BC0007820844B012283F86020824B00225A66B1
:104BD000804B002283F86020804B02937D4B0022A3
:104BE00083F868207B4B01225A66082304939FEDCB
:104BF000741B9FED750B0498FFF7F2F80246029BB9
:104C0000DA60744BDB6E1846FFF784F9714B0122B2
:104C100083F868206F4B012283F8D0206D4B00226F
:104C2000C3F8D4206B4B002283F8D0206C4B019347
:104C3000684B002283F8D820664B0122C3F8D420A9
:104C40000923049301210498FFF714FA0246019BFB
:104C5000DA60604B012283F8D8205E4B012283F892
:104C6000B0205C4B0022C3F8B4205A4B002283F8DA
:104C7000B0205C4B0193574B002283F8B820554B72
:104C80000122C3F8B4202623049301210498FFF7DE
:104C9000F1F90246019BDA604E4B012283F8B820FD
:104CA0004C4B012283F890204A4B0022C3F89420F9
:104CB000484B002283F890204B4B0193454B002238
:104CC00083F89820434B0122C3F8942006230493D1
:104CD00001210498FFF7CEF90246019BDA603D4BB3
:104CE000012283F898203B4B012283F8E020394BC6
:104CF0000022C3F8E420374B002283F8E0203B4B2E
:104D00000193344B002283F8E820324B0122C3F890
:104D1000E4201C23049301210498FFF7ABF9024619
:104D2000019BDA602B4B012283F8E820294B0122FA
:104D300083F8C020274B0022C3F8C420254B002253
:104D400083F8C0202A4B0193224B002283F8C8200D
:104D5000204B0122C3F8C420172304930121049897
:104D6000FFF788F90246019BDA601A4B012283F8AB
:104D7000C820184B012283F8A020164B0022C3F84C
:104D8000A420144B002283F8A0201A4B0193114B4E
:104D9000002283F8A8200F4B0122C3F8A42021236E
:104DA000049301210498FFF765F90246019BDA603C
:104DB000084B012283F8A82000BF07B05DF804FB70
:104DC00000000000000049400000000000C07240E8
:104DD000401D0020C01C0020301D0020201D002090
:104DE000901D0020701D0020501D0020A01D0020DF
:104DF000801D0020601D002008B5AD4B93F84830A1
:104E0000002B16D1AA4B012283F84820A84BDB6C5B
:104E1000012B0ED1A64B93F85030002B09D0A44B98
:104E20005B6D1846FEF79AFFA14B5B6D1846FEF7C7
:104E30009AFF9F4B93F83030002B16D19C4B0122E8
:104E400083F830209A4B5B6B012B0ED1984B93F873
:104E50003830002B09D0964BDB6B1846FEF77EFFEF
:104E6000934BDB6B1846FEF77EFF914B1B7E002BAE
:104E700015D18F4B01221A768D4BDB69012B0ED198
:104E80008B4B93F82030002B09D0894B5B6A184676
:104E9000FEF764FF864B5B6A1846FEF764FF844B9F
:104EA0001B78002B14D1824B01221A70804B5B6857
:104EB000012B0DD17E4B1B7A002B09D07C4BDB687C
:104EC0001846FEF74BFF7A4BDB681846FEF74BFFA0
:104ED000774B93F88030002B19D1754B012283F862
:104EE0008020734BD3F88430012B10D1704B93F892
:104EF0008830002B0BD06E4BD3F88C301846FFF760
:104F000039F86B4BD3F88C301846FFF753F8684BE1
:104F100093F87030002B16D1654B012283F8702076
:104F2000634B5B6F012B0ED1614B93F87830002BF4
:104F300009D05F4BDB6F1846FFF71CF85C4BDB6F4B
:104F40001846FFF737F85A4B93F86030002B16D10C
:104F5000574B012283F86020554B5B6E012B0ED11D
:104F6000534B93F86830002B09D0514BDB6E184639
:104F7000FFF700F84E4BDB6E1846FFF71BF84C4B63
:104F800093F8D030002B13D1494B012283F8D02065
:104F9000474BD3F8D430012B0AD1454B93F8D83086
:104FA000002B05D0424BD3F8DC301846FFF735F91B
:104FB0003F4B93F8B030002B13D13D4B012283F8C7
:104FC000B0203B4BD3F8B430012B0AD1384B93F8C7
:104FD000B830002B05D0364BD3F8BC301846FFF75D
:104FE0001CF9334B93F89030002B13D1304B012236
:104FF00083F890202E4BD3F89430012B0AD12C4B00
:1050000093F89830002B05D0294BD3F89C301846E4
:10501000FFF703F9264B93F8E030002B13D1244B14
:10502000012283F8E020224BD3F8E430012B0AD18F
:105030001F4B93F8E830002B05D01D4BD3F8EC3014
:105040001846FFF7EAF81A4B93F8C030002B13D13B
:10505000174B012283F8C020154BD3F8C430012B25
:105060000AD1134B93F8C830002B05D0104BD3F85E
:10507000CC301846FFF7D1F80D4B93F8A030002B39
:1050800013D10B4B012283F8A020094BD3F8A43095
:10509000012B0AD1064B93F8A830002B05D0044B06
:1050A000D3F8AC301846FFF7B8F800BF08BD00BF12
:1050B000C01C002000B583B04FF000024FF0000389
:1050C000CDE90023154B1B785A1CD1B2134A11703D
:1050D000002B09D0124B01221A60104B1B78013BA8
:1050E000DAB20E4B1A7016E062B600BF0D4B1B68A9
:1050F000D3E90823CDE90023FFF75EFA9DED000B0D
:105100000020FFF7A7F972B600BF044B1B78013BE4
:10511000DAB2024B1A7003B05DF804FB38090020C4
:105120003409002020DB000800B585B04A4B03930A
:105130004A4B029300238DF80730494B00221A7026
:10514000484B00221A7001DFFDF77AFBFEF78EFC58
:10515000454B1B6800221A6000210020FFF785F8EC
:1051600003468DF807309DF90730002B02D09DF9DA
:1051700007306CE0FFF780FB3B4B1B685A683A4BEB
:105180001B68383319461046FFF77AF803468DF846
:1051900007309DF90730002B0DD14FF0FF30FFF79E
:1051A000EBF8FFF7F9F90346002B04D02E4B1B68F0
:1051B000012283F840209DED030A05F017FAFFF75E
:1051C000F3F90346002B06D1FFF7E6F90346002B5F
:1051D00001D1012300E00023DAB2224B1A7062B63B
:1051E00000BF2AE0FFF7A6F903468DF80730FFF766
:1051F000DBF90346002B04D1FFF7CEF90346002B61
:1052000001D0012300E00023DAB2154B1A70144BD1
:105210001B78DBB2002B0CBF01230023DBB21A4644
:10522000104B1A700E4B1B78DBB2002B05D00F4BC6
:105230001B680E4A23F0010313600A4B1B78DBB294
:10524000002BCFD1FFF7D8FDFFF786F900231846D2
:1052500005B05DF804FB00BFCDCC4C3E0000C84259
:10526000F11D0020F01D002020DB000810E000E010
:1052700084B0039002910192039B029A1A60039BEF
:105280000433019A1A6000BF04B0704700000000A8
:1052900070B58AB08DED020B0346ADF80630BDF84F
:1052A0000630002B77D14FF00002414BDDE90201BF
:1052B00005F0B2FE02460B46CDE906239FED381BF2
:1052C0009DED060B05F068FB53EC102B10461946BC
:1052D00006F052F9034605930023099332A3D3E95C
:1052E0000023DDE9060106F027F90346002B0ED066
:1052F0002DA3D3E90023DDE9060105F0B7FF02463F
:105300000B461046194606F037F903460993099AE9
:1053100005992848FFF7ACFF274BD3E900014FF070
:105320000002264B06F0E0F80346002B2ED1224B5C
:10533000D3E900014FF000024FF0404306F0D4F8EB
:105340000346002B22D11C4BD3E90001DDE90223E7
:1053500005F0AAFC02460B4614461D464FF000021B
:10536000174BDDE9020105F057FE02460B4601210D
:105370000E462046294606F0C1F80346002B01D10F
:1053800000231E46F3B21A460E4B1A700E49DDE991
:105390000223C1E9002300BF0AB070BDAFF3008053
:1053A000000000000000F0410000E0FFFFFFEF41BF
:1053B00000408F4054090020F00300200000F0BF9F
:1053C0000000B03C500900206009002000B585B005
:1053D000002302930023019300238DF80F3001AACC
:1053E00002AB1146184604F02DFE029B019A1146AD
:1053F000184603F0BBF803468DF80F309DF90F30C7
:10540000002B02D09DF90F3010E001AA02AB11462B
:10541000184604F029FE029B019A1146184600F036
:10542000BBFE03468DF80F309DF90F30184605B0CE
:105430005DF804FB00B585B003468DF80730002306
:105440008DF80F3000238DF80E300020FDF712FA92
:1054500000238DF80D3003F019FA03468DF80F3054
:105460009DF90F30002B08D09DF90F3013F1020F7A
:1054700003D001238DF80E300DE09DF80D30002B88
:1054800004D19DF90F3013F1020F01D0012300E088
:1054900000238DF80D309DF80E30002B1FD100F049
:1054A000A7FE03468DF80F309DF90F30002B08D072
:1054B0009DF90F3013F1020F03D001238DF80E3048
:1054C0000DE09DF80D30002B04D19DF90F3013F144
:1054D000020F01D0012300E000238DF80D309DF86C
:1054E0000E30002B1FD103F05DF903468DF80F300D
:1054F0009DF90F30002B08D09DF90F3013F1020FEA
:1055000003D001238DF80E300DE09DF80D30002BF7
:1055100004D19DF90F3013F1020F01D0012300E0F7
:1055200000238DF80D309DF80730002B10D000209F
:10553000FDF7A0F99DF80E30002B03D19DF80D303A
:10554000002B01D1012300E000238DF80E3002E092
:1055500001238DF80E309DF80E30002B3FF478AF0C
:105560009DF90F30184605B05DF804FB00B583B017
:1055700000238DF8023000F013FF03468DF803304E
:10558000002301930FE00A20FDF774F9019B03F556
:105590001C53103301930120FFF74CFF00F000FF74
:1055A00003468DF80330019B204A934203D89DF8AF
:1055B0000330002BE7D100F0F9FE03468DF80230EE
:1055C00003F0A0FA03468DF80230194B00221A703E
:1055D000184B00221A70184B00221A60174B002239
:1055E0001A60174B00221A60164B00221A60164BE5
:1055F00000221A6015494FF000024FF04043C1E904
:105600000023134B00221A7008220021114806F0D3
:10561000BBFE11494FF000024FF00003C1E9002327
:105620009DF90230184603B05DF804FBFF2C3101F0
:10563000390900203A0900203C09002040090020D7
:1056400044090020480900204C090020F0030020F4
:1056500050090020540900206009002000B587B0DF
:10566000634B1B680593059B002B00F0BC80614BCE
:105670001B78DBB2002B04D15D4B1B68002B00F0C4
:10568000B2805D4B1B78DBB2022B40F0AC805B4BF1
:105690001B78002B40F0A780059BD3E90023CDE9C0
:1056A0000223574B1B78002B00F08E80554B1B7844
:1056B000DBB2002B04D0534B1B78DBB2022B01D1A1
:1056C000012300E000238DF807304E4B1B78DBB23E
:1056D000012B04D04B4B1B78DBB2022B01D10123F1
:1056E00000E000238DF806309DF80730002B33D002
:1056F000454BD3E90023DDE9020105F013FF034622
:10570000002B0AD0414BD3E900013F4BD3E90023E2
:1057100005F0F4FE0346002B14D13B4BD3E90023E4
:10572000DDE9020105F008FF0346002B14D0374BDA
:10573000D3E90001344BD3E9002305F0D5FE03463D
:10574000002B09D0324B1B68002B02D1314B0122B8
:105750001A702A4B01221A709DF80630002B33D0A4
:10576000294BD3E90023DDE9020105F0C7FE03461A
:10577000002B0AD0254BD3E90001234BD3E90023AA
:1057800005F0D0FE0346002B14D11F4BD3E90023B4
:10579000DDE9020105F0A8FE0346002B14D01B4BE7
:1057A000D3E90001184BD3E9002305F0C5FE0346F9
:1057B000002B09D0164B1B68002B02D1154B012280
:1057C0001A700E4B01221A700C4B1B78002B0CBF69
:1057D00001230023DBB21A46094B1A700B49DDE99D
:1057E0000223C1E9002300BF07B05DF804FB00BF3E
:1057F0006C090020700900208C0900209B09002002
:1058000098090020880900207809002090090020CC
:10581000840900209A09002082B000238DF8073007
:10582000984B1B78DBB2002B19D1974B00221A70D2
:10583000964B00221A70964B1B78DBB2002B30D0AF
:10584000904B02221A70924B00221A70914B1B78D7
:10585000DBB2002B25D101238DF8073021E08C4BE2
:1058600000221A70884B1B78DBB2002B09D08A4BC0
:1058700000221A70834B00221A70834B00221A7088
:105880000FE0844B1B78DBB2002B03D101238DF892
:10589000073006E07D4B1B788DF807307B4B0022EC
:1058A0001A70784B1B78DBB2042B00F2D18001A276
:1058B00052F823F0C9580008FB590008E3580008C3
:1058C000B55900083D590008714B1B78DBB2002B1D
:1058D00000F0CB806B4B02221A706D4B00221A70C5
:1058E000C3E09DF80730002B00F0C1806B4B1B68B4
:1058F000002B0DDD674B1B78DBB2012B08D1674B0A
:105900001B681A46664B1A605E4B03221A70AEE0A3
:10591000644B1B68002B0AD05F4B01221A70614B4D
:105920001B685F4A1360574B04221A709FE05A4B62
:1059300000221A70534B00221A7098E0584B1B68D3
:10594000002B04D0564B1B68013B554A1360544B47
:105950001B68002B40F08D80534B1B78DBB2012B72
:1059600006D14D4B00221A70464B00221A7080E07F
:105970004E4B1B68002B0AD0474B00221A704B4B32
:105980001B68474A13603F4B01221A7071E09DF873
:105990000730002B07D0434B1B68414A1360394B3B
:1059A00004221A7065E03C4B00221A70354B02222B
:1059B0001A705EE03A4B1B68002B04D0384B1B6812
:1059C000013B374A1360364B1B68002B53D1354BD4
:1059D0001B68002B0AD0304B01221A70314B1B6818
:1059E0002F4A1360274B04221A7044E02A4B0022EE
:1059F0001A70244B00221A703DE0294B1B68002BC3
:105A000004D0274B1B68013B254A1360244B1B68BD
:105A1000002B32D19DF80730002B15D0214B1B688D
:105A2000002B0AD01C4B01221A701E4B1B681C4A0B
:105A30001360144B04221A701FE0174B00221A70D7
:105A4000104B00221A7018E00E4B02221A7014E05C
:105A5000114B00221A700D4B00221A700A4B0022C3
:105A60001A70084B00221A7008E000BF06E000BF61
:105A700004E000BF02E000BF00E000BF00BF02B0D2
:105A8000704700BF8C090020890900209B09002075
:105A9000FC0300208A0900209A09002084090020C4
:105AA0009C090020F80300208B09002080090020B9
:105AB0000E494FF000024FF00003C1E900230C4BE8
:105AC00000221A700B4B1B78DAB20B4B1A700B4B7F
:105AD00000221A700A4B00221A700A4B00221A6028
